{
    "contractName": "stringMethod",
    "abi": [
        {
            "inputs": [
                {
                    "internalType": "string",
                    "name": "a",
                    "type": "string"
                },
                {
                    "internalType": "string",
                    "name": "b",
                    "type": "string"
                }
            ],
            "name": "concatenate",
            "outputs": [
                {
                    "internalType": "string",
                    "name": "",
                    "type": "string"
                }
            ],
            "stateMutability": "pure",
            "type": "function"
        },
        {
            "inputs": [
                {
                    "internalType": "string",
                    "name": "text",
                    "type": "string"
                }
            ],
            "name": "reverses16",
            "outputs": [
                {
                    "internalType": "string",
                    "name": "",
                    "type": "string"
                }
            ],
            "stateMutability": "pure",
            "type": "function"
        }
    ],
    "bytecode": "61030661003a600b82828239805160001a60731461002d57634e487b7160e01b600052600060045260246000fd5b30600052607381538281f3fe73000000000000000000000000000000000000000030146080604052600436106100405760003560e01c8063266001d314610045578063d4cac9481461006e575b600080fd5b6100586100533660046101e1565b610081565b6040516100659190610245565b60405180910390f35b61005861007c366004610293565b6100fe565b60608283518384518083018452602181840110156100b75760208201518360208601015260408401604052836000526040516000f35b50602060016020885101030460208201518360208601015260015b818110156100f35760208102838101519085018601600201526001016100d2565b505050505092915050565b606081516020830180516000825260005b83811015610130576000198185030160080282901b8382015260010161010f565b505083600052602081016000f35b634e487b7160e01b600052604160045260246000fd5b600082601f83011261016557600080fd5b813567ffffffffffffffff808211156101805761018061013e565b604051601f8301601f19908116603f011681019082821181831017156101a8576101a861013e565b816040528381528660208588010111156101c157600080fd5b836020870160208301376000602085830101528094505050505092915050565b600080604083850312156101f457600080fd5b823567ffffffffffffffff8082111561020c57600080fd5b61021886838701610154565b9350602085013591508082111561022e57600080fd5b5061023b85828601610154565b9150509250929050565b600060208083528351808285015260005b8181101561027257858101830151858201604001528201610256565b506000604082860101526040601f19601f8301168501019250505092915050565b6000602082840312156102a557600080fd5b813567ffffffffffffffff8111156102bc57600080fd5b6102c884828501610154565b94935050505056fea26469706673582212209a58929faae0de2f7d247656d01594cb713f0082a236646d132abe6a0bb5bfab64736f6c63430008130033",
    "sourcePath": "/home/malik/Desktop/sol-array/src/stringMethod.sol",
    "compiler": {
        "name": "solc",
        "version": "0.8.19+commit.7dd6d404"
    },
    "functionHashes": {
        "concatenate(string,string)": "266001d3",
        "reverses16(string)": "d4cac948"
    },
    "gasEstimates": {
        "creation": {
            "codeDepositCost": "154800",
            "executionCost": "233",
            "totalCost": "155033"
        },
        "external": {
            "concatenate(string,string)": "infinite",
            "reverses16(string)": "infinite"
        },
        "internal": {
            "comparison32(string memory,string memory)": "infinite",
            "concatenate32(string memory,string memory)": "infinite",
            "matches(string memory[] memory,string memory)": "infinite",
            "slice32(string memory,uint256,uint256)": "infinite"
        }
    }
}