{
    "contractName": "stringMethod",
    "abi": [
        {
            "inputs": [
                {
                    "internalType": "string",
                    "name": "a",
                    "type": "string"
                },
                {
                    "internalType": "string",
                    "name": "b",
                    "type": "string"
                }
            ],
            "name": "concatenate",
            "outputs": [
                {
                    "internalType": "string",
                    "name": "",
                    "type": "string"
                }
            ],
            "stateMutability": "pure",
            "type": "function"
        }
    ],
    "bytecode": "61021561003a600b82828239805160001a60731461002d57634e487b7160e01b600052600060045260246000fd5b30600052607381538281f3fe73000000000000000000000000000000000000000030146080604052600436106100355760003560e01c8063266001d31461003a575b600080fd5b61004d61004836600461012d565b610063565b60405161005a9190610191565b60405180910390f35b81518151810183526020808301519184010152604080830190819052600083815260609190f35b634e487b7160e01b600052604160045260246000fd5b600082601f8301126100b157600080fd5b813567ffffffffffffffff808211156100cc576100cc61008a565b604051601f8301601f19908116603f011681019082821181831017156100f4576100f461008a565b8160405283815286602085880101111561010d57600080fd5b836020870160208301376000602085830101528094505050505092915050565b6000806040838503121561014057600080fd5b823567ffffffffffffffff8082111561015857600080fd5b610164868387016100a0565b9350602085013591508082111561017a57600080fd5b50610187858286016100a0565b9150509250929050565b600060208083528351808285015260005b818110156101be578581018301518582016040015282016101a2565b506000604082860101526040601f19601f830116850101925050509291505056fea2646970667358221220a1acbd2ba5b4e68269096183e1d9854eb9b9cc40d911dc037135732f9373a71464736f6c63430008110033",
    "sourcePath": "/home/malik/Desktop/sol-array/src/stringMethod.sol",
    "compiler": {
        "name": "solc",
        "version": "0.8.17+commit.8df45f5f"
    },
    "functionHashes": {
        "concatenate(string,string)": "266001d3"
    },
    "gasEstimates": {
        "creation": {
            "codeDepositCost": "106600",
            "executionCost": "184",
            "totalCost": "106784"
        },
        "external": {
            "concatenate(string,string)": "infinite"
        }
    }
}